:1000000012C02CC02BC02AC029C028C027C026C0BF
:1000100025C024C023C022C021C020C01FC01EC0D4
:100020001DC01CC01BC011241FBECFE5D4E0DEBF25
:10003000CDBF10E0A0E6B0E0E8EBF1E002C0059033
:100040000D92A236B107D9F720E0A2E6B0E001C0D8
:100050001D92AA36B207E1F702D0ACC0D1CF8BD047
:1000600061E070E08CE090E052D060E070E08FE002
:1000700090E04DD067E070E08BE090E048D06FEF0B
:1000800070E081E090E043D061E870E082E090E0D1
:100090003ED061E870E083E090E039D061E870E044
:1000A00084E090E034D061E870E085E090E02FD00B
:1000B00061E870E086E090E02AD061E870E087E0D7
:1000C00090E025D06FEF70E088E090E020D0C0E0B5
:1000D00081E090E06CD0C11108C0809160008695ED
:1000E00080936000823061F408C080916000880FC6
:1000F00080936000803421F402C0C1E001C0C0E000
:100100008FE493EC0197F1F700C00000E1CF98B3C2
:100110009B7F98BB8FB9779BFECF6FB9779BFECF44
:1001200088B3846088BB0895CF93DF93C0E0D0E0AC
:1001300008C0FE01EE59FF4F6081219670E0CE01AC
:10014000E6DFC830D105ACF3DF91CF9108958FEF92
:100150008093620081E090E007C0FC01EE59FF4F00
:10016000208121682083019687309105B4F38FEFB9
:1001700080936900089587B3846087BB88B38460E7
:1001800088BB87B3886087BB87B3806287BB8DB12C
:1001900080618DB98DB18E7F8DB98DB18D7F8DB917
:1001A0008EB181608EB98DB180648DB90895CFDF35
:0801B000BBDF0895F894FFCFB6
:0201B800400005
:00000001FF
