:1000000012C02CC02BC02AC029C028C027C026C0BF
:1000100025C024C023C022C021C020C01FC01EC0D4
:100020001DC01CC01BC011241FBECFE5D4E0DEBF25
:10003000CDBF10E0A0E6B0E0E4E0F7E002C005903C
:100040000D92A036B107D9F720E0A0E6B0E001C0DC
:100050001D92A036B207E1F702D052C3D1CF63D0D0
:1000600046D061E070E08CE090E034D060E070E079
:100070008FE090E02FD067E070E08BE090E02AD036
:100080006FEF70E081E090E025D061E870E082E001
:1000900090E020D061E870E083E090E01BD061E860
:1000A00070E084E090E016D061E870E085E090E0D8
:1000B00011D061E870E086E090E00CD061E870E07B
:1000C00087E090E007D06FEF70E088E090E002D02A
:1000D00058D0FECF98B39B7F98BB8FB9779BFECF4C
:1000E0006FB9779BFECF88B3846088BB089587B3D0
:1000F000846087BB88B3846088BB87B3886087BB14
:1001000087B3806287BB8DB180618DB98DB18E7FE1
:100110008DB98DB18D7F8DB98EB181608EB98DB164
:1001200080648DB908958FB582608FBD8EB588606B
:100130008EBD8EB580618EBD8EB582608EBD87B35B
:10014000826087BB82EC91E097BD86BD86B597B58E
:10015000969587959BBD8ABD8FB580688FBD0895A4
:100160009B01AC0160E074E284EF97E4DFD146D2FA
:1001700077BD66BD86B597B5969587959BBD8ABDBB
:1001800008956BE774ED82E993E4EADF81E19AE791
:100190000197F1F700C0000060E070E0CB01E0DF04
:1001A0006BE774ED82E993E4DBDF81E19AE7019785
:1001B000F1F700C000006FE175ED82E194E4D0DF5B
:1001C00083E294EF0197F1F700C0000060E070E077
:1001D0008CED93E4C5DF97EF24E281E0915020405D
:1001E0008040E1F700C0000066E676EA8FEC93E419
:1001F000B7DF81E19AE70197F1F700C0000060E006
:1002000070E084EC93E4ACDF81E19AE70197F1F7C9
:1002100000C0000061E77DE98EEA93E4A1DF83E29C
:1002200094EF0197F1F700C000006BE774ED82E9ED
:1002300093E496DF81E19AE70197F1F700C00000AF
:1002400061E77DE98EEA93E48BDF81E19AE701972C
:10025000F1F700C0000060E070E084EC93E480DF20
:1002600081E19AE70197F1F700C0000064EA70EDC0
:1002700082E893E475DF81E19AE70197F1F700C026
:10028000000060E070E0CB016BDF64EA70ED82E8B3
:1002900093E466DF81E19AE70197F1F700C000007F
:1002A0006FE175ED82E194E45BDF83E294EF019707
:1002B000F1F700C0000060E070E08CED93E450DFE7
:1002C00097EF24E281E0915020408040E1F700C0A8
:1002D000000066E676EA8FEC93E442DF81E19AE77C
:1002E0000197F1F700C0000060E070E084EC93E457
:1002F00037DF81E19AE70197F1F700C0000061E77D
:100300007DE98EEA93E42CDF83E294EF0197F1F725
:1003100000C000006BE774ED82E993E421DF81E126
:100320009AE70197F1F700C0000061E77DE98EEAE6
:1003300093E416DF81E19AE70197F1F700C000002E
:1003400060E070E084EC93E40BDF81E19AE70197D1
:10035000F1F700C0000064EA70EF86E793E400DF85
:1003600081E19AE70197F1F700C0000060E070E0DA
:10037000CB01F6DE64EA70EF86E793E4F1DE81E11B
:100380009AE70197F1F700C000006FE175ED82E197
:1003900094E4E6DE83E294EF0197F1F700C00000F9
:1003A00060E070E08CED93E4DBDE97EF24E281E027
:1003B000915020408040E1F700C0000066E676EAF8
:1003C0008FEC93E4CDDE81E19AE70197F1F700C06D
:1003D000000060E070E084EC93E4C2DE81E19AE723
:1003E0000197F1F700C0000061E77DE98EEA93E430
:1003F000B7DE83E294EF0197F1F700C000006BE7EE
:1004000074ED82E993E4ACDE81E19AE70197F1F7BC
:1004100000C0000061E77DE98EEA93E4A1DE81E19E
:100420009AE70197F1F700C0000060E070E084EC0B
:1004300093E496DE81E19AE70197F1F700C00000AE
:100440006BE774E189E693E48BDE81E19AE701973B
:10045000F1F700C0000060E070E0CB0181DE6BE7E7
:1004600074E189E693E47CDE81E19AE70197F1F794
:1004700000C000006FE175ED82E194E471DE83E27B
:1004800094EF0197F1F700C0000060E070E08CEDA0
:1004900093E466DE97EF24E281E0915020408040B3
:1004A000E1F700C0000066E676EA8FEC93E458DEE0
:1004B00081E19AE70197F1F700C0000060E070E089
:1004C00084EC93E44DDE81E19AE70197F1F700C0F7
:1004D000000061E77DE98EEA93E442DE83E294EF77
:1004E0000197F1F700C000006BE774ED82E993E437
:1004F00037DE81E19AE70197F1F700C0000061E77C
:100500007DE98EEA93E42CDE81E19AE70197F1F729
:1005100000C0000060E070E084EC93E421DE81E143
:100520009AE70197F1F700C0000008950CD0AEC023
:10053000A6D040F09DD030F021F45F3F19F08FC07D
:100540005111D8C092C0B3D098F39923C9F3552361
:10055000B1F3951B550BBB27AA27621773078407B6
:1005600038F09F5F5F4F220F331F441FAA1FA9F36C
:1005700033D00E2E3AF0E0E830D091505040E6955E
:10058000001CCAF729D0FE2F27D0660F771F881FBF
:10059000BB1F261737074807AB07B0E809F0BB0BAE
:1005A000802DBF01FF2793585F4F2AF09E3F5105D2
:1005B00068F055C09FC05F3FECF3983EDCF3869532
:1005C00077956795B795F7959F5FC9F7880F911D48
:1005D0009695879597F90895E1E0660F771F881F34
:1005E000BB1F621773078407BA0720F0621B730BE7
:1005F000840BBA0BEE1F88F7E095089504D0689439
:10060000B11178C008955BD088F09F5790F0B92F52
:100610009927B751A0F0D1F0660F771F881F991F57
:100620001AF0BA95C9F712C0B13081F062D0B1E0CA
:1006300008955FC0672F782F8827B85F39F0B93FDA
:10064000CCF3869577956795B395D9F73EF4909559
:100650008095709561957F4F8F4F9F4F089597F9C3
:100660009F6780E870E060E008959FEF80EC089558
:1006700000240A9416161706180609060895002481
:100680000A9412161306140605060895092E0394FB
:10069000000C11F4882352F0BB0F40F4BF2B11F46F
:1006A00060FF04C06F5F7F4F8F4F9F4F089557FDCE
:1006B0009058440F551F59F05F3F71F04795880FD0
:1006C00097FB991F61F09F3F79F087950895121667
:1006D00013061406551FF2CF4695F1DF08C0161613
:1006E00017061806991FF1CF8695710561050894C4
:1006F0000895E894BB2766277727CB0197F90895DB
:04070000F894FFCF9B
:00000001FF
